:020000040800F2
:10000000B8FB0020A91C0008290400082B040008E4
:100010002F04000833040008370400080000000023
:100020000000000000000000000000003B04000889
:100030003D04000800000000B3140108351A000850
:10004000C31C0008C31C0008C31C0008F3090008F7
:10005000C31C0008C31C0008C31C0008C31C000804
:10006000C31C0008C31C0008C31C0008C31C0008F4
:10007000C31C0008C31C0008C31C0008C31C0008E4
:10008000C31C0008C31C0008C31C0008C31C0008D4
:10009000C31C0008C31C0008C31C0008C31C0008C4
:1000A000C31C0008C31C0008C31C0008C31C0008B4
:1000B0009F2F0008C31C0008C31C0008C31C0008B5
:1000C000C31C0008C31C0008C31C0008C31C000894
:1000D000C31C0008C31C0008C31C0008131C000834
:1000E000C31C0008C31C0008C31C0008C31C000874
:1000F000C31C0008C31C0008C31C0008C31C000864
:10010000C31C0008C31C0008C31C0008C31C000853
:10011000C31C0008C31C0008410B0008C31C0008D6
:10012000C31C0008C31C0008C31C0008C31C000833
:10013000DFF80CD011F064F9004800477D02000898
:10014000B8FB002010B5804808F0A7FE19217F48B1
:1001500009F0BFFB08B104F08AFE4FF4FA717C4845
:1001600009F0B7FB08B108F004FF6421794809F0F1
:10017000B0FB08B108F0FAFA10BD0EB501F066FC4C
:1001800001F08CFD4FF4165001F0F4FC00F0F8F98A
:1001900000F0D0FB00F052FC01F0D3F800F01AFAA6
:1001A0004FF478406C4908806CA01021CDE9001014
:1001B0007248438802880A21084601F0E9FB1F20A3
:1001C000654908806E486F4908606F486F4908604C
:1001D0006FF07F406E49086009F070FB03F0FBFB95
:1001E00002E0C82001F08BFC6A486B490022674B93
:1001F000CDE900210290664A6249534803F014FF9A
:100200000028EED065A011F085F969A01021CDE994
:1002100000105A484388028832210A2001F0B8FBB6
:1002200069A01021CDE90010544843880288462176
:100230000A2001F0ADFB69A01021CDE900104F4864
:10024000438802885A210A2001F0A2FB68A01021ED
:10025000CDE900104948438802886E210A2001F048
:1002600097FB4FF478403C490880374803F00EFF75
:10027000354803F00EFF09F039FD0EBD8AB00024A9
:10028000FFF77BFF09A80BF005F900BF00BF00BF17
:100290000AF0ACFF044600BF00BF5B480078401C7A
:1002A0005949087000BF00BF20460AF0A3FF00BFF5
:1002B00000BF00BF09A8032100220592CDE9062155
:1002C000089010464FF400713322504BCDE90132B3
:1002D000CDE90310032000234D4A4EA10090504861
:1002E0000EF0FEF900BF00BF00BF0AF07FFF04461A
:1002F00000BF00BF44480078401E434908700846CC
:100300000078A0B947480088002809DD00BF00BF79
:1003100020460AF06FFF00BF00BF0BF0A1FD0DE00B
:1003200000BF00BF20460AF065FF00BF06E000BF27
:1003300000BF20460AF05EFF00BF00BF00BF09A853
:100340000BF025FB00BFFEE7BC05002010000020DD
:100350000C00002014000020400000204C574950A1
:100360002055434F534949492053544D3332463168
:1003700030335A4520546573742100004400002036
:100380000A80D1D8000000200A80D1FE0800002099
:1003900004000020D7970008E78E0008454E43323E
:1003A000384A363020496E6974204F4B210D0A00BF
:1003B000202020202020202020202020202020203D
:1003C000202020200000000049503A31302E3132E8
:1003D000382E3230392E3231360000004D41534B29
:1003E0003A3235352E3235352E3235352E30000045
:1003F000474154455741593A31302E3132382E3227
:1004000030392E323534000054050020E4E100205C
:10041000810601087374617274207461736B00004B
:1004200020E1002018050020704700BFFEE700BF54
:10043000FEE700BFFEE700BFFEE770477047000021
:100440000CB50020019000904848006840F48030CE
:100450004649086000BF4548006800F4003000903D
:100460000198401C0190009818B90198B0F5A06F50
:10047000F1D13E48006800F4003010B10120009036
:1004800001E0002000900098012843D1384800681E
:1004900040F01000364908600846006820F003006C
:1004A00008600846006840F0020008602F48406875
:1004B0002E4948600846406848600846406840F455
:1004C000806048600846406820F47C104860084618
:1004D000406840F4E81048600846006840F08070CA
:1004E000086000BF2148006800F000700028F9D0C3
:1004F0001E48406820F003001C49486008464068D8
:1005000040F00200486000BF1848406800F00C004E
:100510000828F9D10CBD10B5FFF792FF10BD10B53A
:100520001248006840F00100104908600846406821
:10053000104908400D494860084600680E490840C7
:100540000A4908600846006820F4802008600846D0
:10055000406820F4FE0048604FF41F008860FFF7F9
:10056000DAFF4FF000600549086010BD001002403E
:10057000002002400000FFF8FFFFF6FE08ED00E05B
:1005800008B50121102001F0EBFD0120ADF80000BD
:1005900010208DF8030003208DF8020069460C48F6
:1005A00001F096FC01210A4801F01DFDFE20ADF886
:1005B000000010208DF8030003208DF8020069462A
:1005C000034801F085FCFE21014801F00CFD08BD47
:1005D0000010014008B50121442001F0C1FD0120B7
:1005E000ADF8000028208DF8030003208DF80200EC
:1005F00069462C4801F06CFC1C20ADF80000482036
:100600008DF8030003208DF802006946264801F0AA
:100610005FFC08BD10B5044624480078012826D1A7
:100620002348006801280AD02248006838B12148D0
:10063000001F006818B11F48001D0068B8B90A20E3
:1006400001F05DFA00201949087019480068012876
:1006500000D110BD1748006808B90220F9E7154815
:10066000001F006808B90320F3E70420F1E71048F1
:10067000006878B90F48006801280BD10D48001FA9
:100680000068012806D10B48001D0068012801D12F
:1006900006490870012C02D101200449087000208D
:1006A000D7E700000008014000180140300000209A
:1006B000000121420C01234208B503208DF80000FF
:1006C00000208DF801008DF8020001208DF8030054
:1006D000684601F000FB08BDF0B503460C46154620
:1006E000642093FBF0F0C6B2642093FBF0F700FBAC
:1006F0001730C1B2132E02DD01F16400C1B2084609
:10070000CF1701EB977701EBA707BAB2072092FB4F
:10071000F0F700FB172082B25719601EDFF8FCC209
:100720001CF80000384482B2CF1701EB9777BF1056
:10073000A1EB87071FB9032C01DA501E82B20720F4
:1007400092FBF0F700FB1720C0B2F0BD0146CA17BC
:1007500001EB92729210A1EB820292B9642091FB9C
:10076000F0F200FB121050B94FF4C87091FBF0F298
:1007700000FB121008B9012070470020FCE701209F
:10078000FAE70020F8E770B5002600240025A44809
:1007900006883604001D00880644A248B6FBF0F423
:1007A000A1480088A0423CD09F490C8040F2B2751D
:1007B00010E02846FFF7CAFF40B1B4F5B77F02D377
:1007C000A4F5B77404E0681C85B206E0A4F26D14C9
:1007D000681C85B2B4F5B67FEBD800BF934885801E
:1007E000002516E091498888FFF7B0FF30B1012D50
:1007F00004D11D2C01D31D3C09E00CE08C48405D68
:10080000A04203D88A48405D241A00E003E0681C37
:1008100085B21C2CE6D200BF681C84498871601C1C
:10082000C8718048B6FBF0F100FB11644FF46160C1
:10083000B4FBF0F07D4908704FF46160B4FBF0F157
:1008400000FB11403C21B0FBF1F0784948704FF4B7
:100850006160B4FBF0F100FB11403C21B0FBF1F210
:1008600001FB1200714988700B46DA7999799888F2
:10087000FFF732FF6D490872002070BD2DE9F05F6F
:1008800006460F4690469946DDE90AAB002440F241
:10089000B270864203DB40F63300864202DD01205F
:1008A000BDE8F09F40F2B2750AE02846FFF74EFF20
:1008B00010B16048044401E05F480444681C85B2FC
:1008C000B542F2DB781EC7B2002510E05848405D03
:1008D00040F2A321484304EBC0143046FFF736FF33
:1008E00018B1012D01D14F480444681C85B2BD42A6
:1008F000ECDBA8F1010040F2A321484304EBC01453
:10090000C9EB4910C0EB092004EB0014CAEB0A1034
:1009100004EB80045C4401214FF0C05001F02DFC39
:10092000012001F063FB204601F03EFD01F057FD80
:100930000020B5E71CB50024042001F02EFA45F292
:100940005001884247D001214FF0C05001F015FC02
:10095000012001F04BFB01F00DFA012001F071FBC9
:1009600004E0601CC4B20A2001F0C9F8412001F083
:1009700043FB0028F5D0FA2C01DB01201CBD4FF40D
:10098000807001F077FB012001F07AFB01F027FD78
:1009900001F02EFD0121084601F0E6FC01F01FFDEB
:1009A00001F0EFFC47F6FF7001F00BFD01F017FDC1
:1009B00037200F2111231322CDE90010042140F22A
:1009C000DE70FFF75BFF01F0E5FC45F2500104200B
:1009D00001F0D8F907E001F00BFD0121084601F014
:1009E000C3FC01F0FCFCFFF767FEFFF7CCFE002024
:1009F000C4E710B5012001F00DFD08B1FFF7C3FEFB
:100A0000022001F007FD10B1022001F013FD0520C6
:100A100001F010FD01F0E3FC10BD0000E819010831
:100A2000182800408051010032000020EC05002011
:100A3000F41901080085E2018033E10100B587B0B7
:100A400001214FF4017001F08BFB0121480201F0FC
:100A5000A1FB00214FF4007001F09CFB4FF400401B
:100A600001F0E6FA0220ADF8040000208DF807003E
:100A700001A9314801F02CFA304801F08DFE002028
:100A800002908DF80C008DF80D004FF4602004905A
:100A90000020059001208DF8180002A9274801F0D8
:100AA000A2FE0121254801F0C1FE244801F0C9FE43
:100AB00000BF224801F0CAFE0028FAD11F4801F009
:100AC000CFFE00BF1D4801F0D0FE0028FAD1012161
:100AD0001A4801F0D4FE07B000BD10B50446072344
:100AE00001222146154801F0D5FE0121134801F0ED
:100AF000C6FE00BF0221114801F02CFF0028F9D0EA
:100B00000E4801F023FF10BD2DE9F04107460C46C9
:100B10000025002608E03846FFF7DFFF05440520E2
:100B200000F0EDFF701CC6B2A642F4DBB5FBF4F09A
:100B300080B2BDE8F08100000008014000240140BF
:100B400010B501211D4801F0C6FD20B11C48006808
:100B5000401C1B4908600121184801F0CDFD10BD63
:100B60007FB505460C460121102001F006FBADF8CB
:100B70000850ADF804400020ADF80A00ADF80600BA
:100B800001A90E4801F060FC012241210B4801F04F
:100B900099FD0121094801F089FD36208DF80000FA
:100BA00001208DF8010002208DF8020001208DF84F
:100BB0000300684601F08FF87FBD00000010004080
:100BC0003400002070B50546002405E0601CC4B266
:100BD000C82C01DD002070BD0221174801F0D3FDB3
:100BE0000028F3D02946144801F0C8FD002405E090
:100BF000601CC4B2C82C01DD0020ECE701210E48C6
:100C000001F0C1FD0028F3D00B4801F0B9FDC0B2DE
:100C1000E1E710B50446084800884FF6C771084060
:100C200005490880084600882043088001210248C1
:100C300001F098FD10BD00000038004000B587B0FD
:100C40000121880301F099FA0121482001F088FA76
:100C50004FF49050ADF8040010208DF807000320E9
:100C60008DF8060001A9F74801F032F94FF4604011
:100C7000ADF8040018208DF8070003208DF8060059
:100C800001A9F04801F024F94FF46041ED4801F06A
:100C9000AAF90020ADF808004FF48270ADF80A0000
:100CA0000020ADF80C00ADF80E00ADF810004FF4C8
:100CB0000070ADF812003820ADF814000020ADF837
:100CC00016000720ADF8180002A9DF4801F02CFD3E
:100CD0000121DD4801F046FD07B000BD10B5FFF76A
:100CE000ADFF0820FFF795FF0020D84908600A20D3
:100CF00000F005FF0120D649C1F8A4010A2000F048
:100D0000FEFE10BD70B505460C4600260020CF49FA
:100D10000C31086004F01F0040EA05063046FFF77A
:100D200051FFFF20FFF74EFF064604F0800018B188
:100D3000FF20FFF747FF06460120C4490C31086039
:100D4000304670BD2DE9F04104460D461646002799
:100D50000020BE490C31086005F01F0040EA04077E
:100D60003846FFF72FFF3046FFF72CFF0120B84928
:100D7000C1F8B001BDE8F08170B505460C46002011
:100D8000B2490C3108603A20FFF71CFF05E06D1EE8
:100D90000020FFF717FF2070641C002DF7D1002002
:100DA00020700120A9490C31086070BD70B504465F
:100DB0000D460020A5490C3108607A20FFF702FF9C
:100DC00004E0641E2878FFF7FDFE6D1C002CF8D1AE
:100DD00001209E490C31086070BD10B5044604F036
:100DE00060009C49097888420ED003221F21A02070
:100DF000FFF7A8FFC4F341121F218020FFF7A2FFD5
:100E000004F060009349087010BD10B504462046F8
:100E1000FFF7E3FF21460020FFF774FF10BD70B518
:100E200004460D462046FFF7D8FF2A4621464020BB
:100E3000FFF788FF70BD70B505460C4600262946B1
:100E4000D420FFF7ECFFE1B2D620FFF7E8FFC4F3B0
:100E50000721D720FFF7E3FF01E0701C86B2EA20EC
:100E6000FFF7D3FF00F0010018B140F6FF70864293
:100E7000F3DB70BD70B504460025FFF72FFFFF229E
:100E800000211046FFF75EFF04E0681C85B20120D8
:100E900000F035FE1D20FFF7B8FF00F0010008B993
:100EA000FA2DF2DBFA2D01DB012070BD00206A492A
:100EB000086000210820FFF7B2FF00210920FFF79A
:100EC000AEFF00210C20FFF7AAFF00210D20FFF745
:100ED000A6FF10210A20FFF7A2FF1A210B20FFF71F
:100EE0009EFF11210420FFF79AFF1A210520FFF72A
:100EF00096FFFF210620FFF792FF1F210720FFF733
:100F00008EFFB0213820FFF78AFF3F212820FFF70E
:100F100086FF30212920FFF782FFF9213020FFF7DB
:100F20007EFFF7213120FFF77AFF0D21C020FFF768
:100F300076FF0021C120FFF772FF3322C2218020FB
:100F4000FFF700FF1221C620FFF769FF0C21C72021
:100F5000FFF765FF1521C420FFF761FFEE21CA20CE
:100F6000FFF75DFF0521CB20FFF759FF2178E42033
:100F7000FFF755FF6178E520FFF751FFA178E220E8
:100F8000FFF74DFFE178E320FFF749FF2179E020EB
:100F9000FFF745FF6179E120FFF741FF4FF48071D2
:100FA0000020FFF748FF4FF480711020FFF743FF48
:100FB0001F20FFF712FFC0221B218020FFF7C2FE77
:100FC00004221F218020FFF7BDFEE420FFF71DFF54
:100FD0002178884201D1002067E7012065E770B5DC
:100FE00004460D4611210220FFF719FF1A210320A4
:100FF000FFF715FF11202044C1B20620FFF70FFFB5
:1010000041F611202044C0F307210720FFF707FF16
:10101000002211467A20FFF795FE29462046FFF769
:10102000C5FE08221F218020FFF78CFE1C20FFF741
:10103000ECFE00F0020020B108221F21A020FFF7E3
:1010400081FE70BD000C014000380040A4812142A7
:1010500000802142380000203C0000202DE9F041B2
:1010600005460F463920FFF7D0FE10B90020BDE835
:10107000F081294801780020FFF7D1FE264800883A
:10108000C0F307210120FFF7CAFE00213A20FFF735
:1010900039FE2149086000213A20FFF733FE1E493E
:1010A000096841EA00201C49086000213A20FFF746
:1010B00029FE044600213A20FFF724FE44EA0024DA
:1010C000241F00213A20FFF71DFE064600213A208A
:1010D000FFF718FE46EA0026681EA04200D26C1EEA
:1010E00006F0800008B9002403E039462046FFF7E7
:1010F00043FE094801780C20FFF791FE064800885E
:10110000C0F307210D20FFF78AFE40221E21802018
:10111000FFF718FE2046AAE73C00002008B5012191
:101120004FF4B07001F01CF84CF23370ADF80000D1
:1011300018208DF8030003208DF802006946FE4850
:1011400000F0C6FE4FF68070ADF8000018208DF854
:10115000030003208DF802006946F84800F0B8FE4D
:1011600041F20100ADF8000018208DF803000320C3
:101170008DF802006946F24800F0AAFE08BD00B5ED
:101180009DB00121080200F0DEFF01200790002041
:1011900008900F20099000200A900B900C900D9061
:1011A00015200090019005200290002003900490EB
:1011B0000590069006200E9000200F9010901020B1
:1011C00011900020129014901390159016904FF4E7
:1011D00080501790002018904FF480401990002004
:1011E0001A9007A81B90CDF870D00EA800F0E4FD6F
:1011F0000121062000F053FE1DB000BDD14908803A
:101200007047D049891C08807047CE49891C0880E6
:10121000704700B502467AB93620FFF7EFFF00208D
:10122000FFF7EFFF4FF4F070C74948804FF4A0700C
:101230000880002088710EE03620FFF7DFFF602075
:10124000FFF7DFFF4FF4A070BF4948804FF4F07004
:1012500008800120887100BD70B504460D462A2023
:10126000FFF7CCFF2646E11704EB1161C1F30F2015
:10127000FFF7C7FFE11704EB11610912A4EB01218D
:1012800088B2FFF7BEFF1646D11702EB1161C1F31A
:101290000F20FFF7B6FF1646D11702EB11610912B6
:1012A000A2EB012188B2FFF7ACFF2B20FFF7A6FFCE
:1012B0002E46E91705EB1161C1F30F20FFF7A1FFDF
:1012C000E91705EB11610912A5EB012188B2FFF7BF
:1012D00098FF1E46D91703EB1161C1F30F20FFF7EA
:1012E00090FF1E46D91703EB11610912A3EB0121F0
:1012F00088B2FFF786FF2C20FFF780FF70BD70B526
:10130000064691484088401E83B28F480088401EA0
:1013100082B200210846FFF79FFF00240CE0002561
:1013200004E03046FFF771FF681C85B286484088AC
:10133000A842F6DC601C84B283480088A042EEDC40
:1013400070BD10B5FFF7EAFEFFF719FF322000F07D
:10135000D6FBD320FFF752FF7A48801C00887A49D9
:1013600088807848801C008888807648801C0088A7
:101370008880084680884FF6FF7101EA0020724994
:101380008880084680886F49891C098808436E490F
:101390008880084681886DA010F0BCF8B020FFF767
:1013A0002DFF0020FFF72DFF1120FFF727FF14204E
:1013B00000F0A5FBB320FFF721FF0220FFF721FF7C
:1013C0000020FFF71EFF0020FFF71BFF0020FFF7A4
:1013D00018FFC020FFF712FF1020FFF712FF3B207D
:1013E000FFF70FFF0020FFF70CFF0220FFF709FFB8
:1013F0000020FFF706FF0120FFF703FF0020FFF7A3
:1014000000FF4320FFF7FDFEC120FFF7F7FE10208D
:10141000FFF7F7FE1020FFF7F4FE0820FFF7F1FEBC
:101420000820FFF7EEFEC420FFF7E8FE1120FFF7CB
:10143000E8FE0720FFF7E5FE0320FFF7E2FE0320AA
:10144000FFF7DFFEC620FFF7D9FE0020FFF7D9FE29
:10145000C820FFF7D3FE0320FFF7D3FE0320FFF7DA
:10146000D0FE1320FFF7CDFE5C20FFF7CAFE03205D
:10147000FFF7C7FE0720FFF7C4FE1420FFF7C1FEE9
:101480000820FFF7BEFE0020FFF7BBFE2120FFF77C
:10149000B8FE0820FFF7B5FE1420FFF7B2FE0720C4
:1014A000FFF7AFFE5320FFF7ACFE0C20FFF7A9FEBD
:1014B0001320FFF7A6FE0320FFF7A3FE0320FFF78C
:1014C000A0FE2120FFF79DFE0020FFF79AFE3520A9
:1014D000FFF794FE0020FFF794FE3620FFF78EFE04
:1014E0000020FFF78EFE3A20FFF788FE5520FFF719
:1014F00088FE4420FFF782FE0020FFF782FE0120D5
:10150000FFF77FFEB620FFF779FE0020FFF779FE98
:101510002220FFF776FE3B20FFF773FED020FFF777
:101520006DFE0720FFF76DFE0720FFF76AFE1D2006
:10153000FFF767FED12011E00014014000180140C0
:1015400000200140FE07006C44000020204C434472
:101550002049443A25780D0A00000000FFF74EFEAE
:101560000020FFF74EFE0320FFF74BFE0020FFF7A1
:1015700048FED220FFF742FE0320FFF742FE142070
:10158000FFF73FFE0420FFF73CFE2920FFF736FE61
:10159000142000F0B4FAB420FFF730FE0020FFF76B
:1015A00030FE142000F0ABFA2C20FFF727FE0020BD
:1015B000FFF72FFE4FF6FF70FFF7A1FE10BD2DE9DC
:1015C000F04304460D4616461F46DDF81C80B44223
:1015D00001DCBD4201DDBDE8F0833B4632462946D1
:1015E0002046FFF739FE301B401C84B2781B401C9C
:1015F00085B20BE0A94602E04046FFF706FEB9F1CE
:101600000000A9F101011FFA81F9F5D1201EA4F112
:1016100001018CB2EED100BFDDE730B504460D46C6
:101620002B46224629462046FFF716FEF248008840
:10163000FFF7EBFD30BD70B504460D4616462B4650
:10164000224629462046FFF707FE3046FFF7DDFD1C
:1016500070BD2DE9FF4F84B081468A46002003907B
:1016600002900698A0EB09050798A0EB0A06CDF8B2
:101670000490CDF800A0002D01DD012705E00DB993
:10168000002702E04FF0FF376D42002E02DD4FF0E1
:10169000010806E016B94FF0000802E04FF0FF38ED
:1016A0007642B54201DD2C4600E034464FF0000B97
:1016B00021E0009A91B2019A90B2FFF7AEFF039831
:1016C000284403900298304402900398A04205DD1C
:1016D0000398001B03900198384401900298A0429F
:1016E00005DD0298001B02900098404400900BF129
:1016F00001001FFA80FB601C8345DADD08B0BDE8FD
:10170000F08FF0B504460D4616461F462B4632466E
:1017100029462046FFF79DFF3B46224629462046A4
:10172000FFF797FF3B46324639462046FFF791FFC9
:101730003B46324629463046FFF78BFFF0BD2DE988
:10174000F04306460F469046002445460320A0EB92
:1017500048093CE07A1B91B2321990B2FFF75DFF65
:101760003A1B91B2721990B2FFF757FF3A1991B232
:10177000721990B2FFF751FF7A1991B2321990B2F3
:10178000FFF74BFF7A1991B2321B90B2FFF745FF7A
:101790003A1991B2721B90B2FFF73FFF7A1B91B2D8
:1017A000321B90B2FFF739FF3A1B91B2721B90B215
:1017B000FFF733FF641CB9F1000F03DAA000801DAE
:1017C000814404E0601B80000A3081446D1EAC42FD
:1017D000C0DDBDE8F0832DE9F84F80460E46174680
:1017E0001C46B3462046E31704EB5373DB10214637
:1017F0004FEAE47C04EB5C7C4FEAEC0CA4EBCC0CF1
:10180000BCF1000F02D04FF0010C01E04FF0000CD2
:101810006344224604EBD27C4FEA6C0C03FB0CF3CE
:10182000DBB20093A7F12000C7B2002556E00C2CD4
:1018300007D107EB4700714901EB800010F80590D4
:1018400013E0102C05D16E4800EB071010F805903E
:101850000BE0182C07D107EBC7006A4901EB8000A9
:1018600010F8059001E0BDE8F88F4FF0000A2FE076
:1018700009F0800030B16048028831464046FFF7E9
:10188000DAFE07E00A9828B95F48028831464046E8
:10189000FFF7D1FE4FEA49604FEA1069701C86B22B
:1018A0005A484088B04200DCDDE7A6EB0B00A042BE
:1018B0000AD15E4608F101001FFA80F853480088FB
:1018C000404500DCCFE706E00AF1010000F0FF0A26
:1018D000BAF1080FCCDB00BF681CC5B20098854286
:1018E000A5DB00BFBFE710B50246012000E0504372
:1018F0000B1EA1F10104E1B2F9D110BD2DE9FF4F9A
:1019000081B0074691461E460E9D4FF0000A002406
:1019100039E0301B401EC1B20A20FFF7E4FFB9FBDB
:10192000F0F00A21B0FBF1F201FB1208BAF1000F4E
:1019300016D1701EA04213DDB8F1000F0ED10020A9
:10194000AB4605EBDB71491001FB0471009088B2D6
:101950002B4620220299FFF73EFF12E04FF0010ACA
:101960000020AB4605EBDB71491001FB04710090D0
:1019700088B208F13001CAB22B460299FFF72BFF5B
:1019800000BF601CC4B2B442C3DB05B0BDE8F08F39
:101990002DE9F84704460D4690469946DDE909676A
:1019A00004F0FF0A08EB04001FFA80F809EB0500B9
:1019B0001FFA80F916E0444502DB5446A81985B2A7
:1019C0004D4500DB14E0002000903A78334629466C
:1019D0002046FFF700FF304606EBD07104EB6101B3
:1019E0008CB27F1C38787E2802DC38782028E2DA36
:1019F00000BFBDE8F887000040000020001A010881
:101A0000741E0108642401084200002044000020E4
:101A100008B5684609F092FE08BD08B5684609F0A9
:101A2000D7FE08BD38B504466A46082120460EF0A8
:101A3000A7F938BD10B542480078012805D109F052
:101A4000BFFD0EF012FB09F0CCFD10BD10B56FF01C
:101A5000040000F072F93B4800683B49B0FBF1F02C
:101A60003A490870374800683749B0FBF1F4384804
:101A70000068C910B1FBF0F04443354800684FF4EA
:101A80007A71B1FBF0F0334908804FF0E020006933
:101A900040F002004FF0E02108610846446100690F
:101AA00040F00100086110BD2DE9F047074600260F
:101AB0004FF0E020D0F814902448007807FB00F89D
:101AC00000BFFFF7A5FF4FF0E020856911E04FF060
:101AD000E0208469AC420CD0AC4202D2281B064400
:101AE00003E0A9EB0400284406442546464500D3FC
:101AF00000E0ECE700BFFFF790FFBDE8F08770B5AE
:101B000004460F480078A0B11348007888B91148FE
:101B10000088844206DB0F48008894FBF0F52846D5
:101B2000FFF780FF0B48008894FBF0F100FB1140A9
:101B300084B24FF47A7104FB01F0FFF7B5FF70BD7A
:101B40000D0500201C00002000127A004C0000202F
:101B5000F42602084E0000200C05002000BF4B4A6E
:101B6000128802F04002002AF9D0C2B2474B1B1D76
:101B70001A80704710B586B004460121880400F031
:101B8000FCFA0121092000F0EBFA4FF48060ADF877
:101B9000140003208DF8160018208DF8170005A9F1
:101BA0003B4800F095F94FF40060ADF814000420B4
:101BB0008DF8170005A9364800F08AF927208DF81E
:101BC000000003208DF801008DF8020001208DF83F
:101BD0000300684600F07FF801940020ADF808008B
:101BE000ADF80A00ADF80C00ADF810000C20ADF80F
:101BF0000E0001A9254800F0EBFA012240F2255120
:101C0000224800F05AFB0121204800F04AFB06B0B0
:101C100010BD10B540F225511C4800F078FB10B300
:101C20001A4800F06FFBC4B21A48008800F4004064
:101C3000C8B91848008800F4804060B10A2C03D06D
:101C400000201449088020E01248008840F4004039
:101C50001049088019E00D2C06D10E48008840F488
:101C600080400C49088010E00A480088C0F30D004D
:101C700009490C5407480088401C0649088008465A
:101C80000088C72801DD0020088010BD0048004002
:101C9000000C014054000020F605002010B54FF460
:101CA000A06000F013F810BD0648804706480047C2
:101CB000FEE7FEE7FEE7FEE7FEE7FEE7FEE7FEE7FC
:101CC000FEE7FEE71F050008310100082549014332
:101CD000254A1160704770B5002100230F22C47897
:101CE00004B3214C246804F4E064C4F5E064210AE0
:101CF000C1F10403CA40447804FA03F18478144023
:101D000021430901194C0678A155047804F01F05F8
:101D10000124AC4005786D11AD0005F1E025C5F852
:101D2000004109E0047804F01F050124AC40104D87
:101D30000678761145F8264070BD042808D14FF08A
:101D4000E021096941F004014FF0E022116107E050
:101D50004FF0E021096921F004014FF0E022116108
:101D6000704700000000FA050CED00E000E400E020
:101D700080E100E010B5012000F019FA002000F029
:101D800016FA10BD08B5002200920A4A0092009A85
:101D900002440092009A116008BD08B50146002077
:101DA0000090044800900098084400900098008833
:101DB00008BD0000006C0040D0E901121143C26868
:101DC0001143026911434269114382691143C26997
:101DD0001143026A1143426A1143826A1143C26A83
:101DE0001143026B114302689200A2F1C0421160DC
:101DF000816808290BD101688900A1F1C0410968F7
:101E000041F0400201688900A1F1C0410A60416BC4
:101E10000968426B526841EA0211426B926841EADA
:101E20000221426B928941EA0241426B128A41EAE5
:101E30000251426B127D41EA0261426B9269114389
:101E40000268521C9200A2F1C0421160C16AB1F551
:101E5000804F1BD1816B0968826B526841EA021185
:101E6000826B926841EA0221826B128A41EA025136
:101E7000826B127D41EA0261826B926911430268B2
:101E80009200A2F1C042C2F8041107E06FF0704264
:101E900001688900A1F1C041C1F80421704751B126
:101EA0008200A2F1C042126842F001038200A2F156
:101EB000C042136009E08200A2F1C0421268034BE5
:101EC0001A408300A3F1C0431A607047FEFF0F0061
:101ED0002DE9F041024600250026002000230024C1
:101EE000002791F803C00CF00F0591F803C00CF027
:101EF000100CBCF1000F03D091F802C04CEA0505AC
:101F000091F800C0BCF1000F31D0146800202BE024
:101F10004FF0010C0CFA00F3B1F800C00CEA030614
:101F20009E4220D183004FF00F0C0CFA03F7BC4304
:101F300005FA03FC4CEA040491F803C0BCF1280F35
:101F400006D14FF0010C0CFA00FCC2F814C00AE0F4
:101F500091F803C0BCF1480F05D14FF0010C0CFA09
:101F600000FCC2F810C0401C0828D1D31460B1F89E
:101F700000C0BCF1FF0F34DD546800202EE000F1FA
:101F8000080C4FF0010808FA0CF3B1F800C00CEA95
:101F900003069E4221D183004FF00F0C0CFA03F789
:101FA000BC4305FA03FC4CEA040491F803C0BCF1FD
:101FB000280F05D100F1080C08FA0CF8C2F81480BB
:101FC00091F803C0BCF1480F07D100F1080C4FF0A5
:101FD000010808FA0CF8C2F81080401C0828CED37B
:101FE0005460BDE8F081016170470000014908625A
:101FF0007047000000000E4210B501460022002389
:1020000000204A11012A02D16B4C236806E0022A03
:1020100002D1694C236A01E0674C636A01F01F0238
:10202000012494401C400CB1012000E0002010BDB0
:1020300001460020604A506820F440400843506048
:10204000704700215C4A203211705B4A82F82010F0
:10205000012802D004280AD104E00121564A203286
:10206000117005E00521544A2032117000E000BFD4
:1020700000BF70475049096A01434F4A11627047D7
:102080004E490860704730B500210022002400232B
:10209000494D6D6805F00C0121B1042905D00829CE
:1020A00023D105E0464D056022E0454D05601FE067
:1020B000414D6D6805F470123F4D6D6805F4803434
:1020C000022505EB92421CB93E4D554305600BE0DD
:1020D000394D6D6805F400351DB13A4D5543056025
:1020E00002E0374D5543056002E0354D056000BF05
:1020F00000BF314D6D6805F0F0010909324D6B5C90
:102100000568DD4045602C4D6D6805F4E061090A05
:102110002D4D6B5C4568DD408560274D6D6805F48D
:102120006051C90A284D6B5C4568DD40C560224D91
:102130006D6805F44041890B244D6B5CC568B5FBA7
:10214000F3F5056130BD29B11B4A526902431A4BB0
:102150005A6104E0184A52698243174B5A6170472A
:1021600029B1154A92690243134B9A6104E0124A5D
:1021700092698243104B9A61704729B10E4AD26925
:1021800002430D4BDA6104E00B4AD26982430A4BE9
:10219000DA61704729B1084AD2680243064BDA6017
:1021A00004E0054AD2688243034BDA607047034972
:1021B000091D086070470000001002403C044242C4
:1021C00000127A0000093D00560000206600002041
:1021D0002DE9F04786B005460E460024A24600BF12
:1021E000A1460027B08900B100BF2F462C8A4CF6CB
:1021F000FF700440F08804432C82AC894EF6F31043
:102200000440B08831890843718908430443AC8194
:10221000AC8A4FF6FF400440B0890443AC8201A869
:10222000FFF731FF4F48874202D1DDF810A001E0EF
:10223000DDF80CA0A88900F4004040B10AEBCA0008
:1022400000EB0A1031684900B0FBF1F807E00AEB37
:10225000CA0000EB0A1031688900B0FBF1F8642075
:10226000B8FBF0F004012009642101FB1089A88962
:1022700000F4004040B1322000EBC900B0FBF1F0A7
:1022800000F00700044308E0322000EB091064214D
:10229000B0FBF1F000F00F0004432C8106B0BDE864
:1022A000F08721B1828942F40052828104E0828960
:1022B0004DF6FF731A4082817047F0B50346002443
:1022C00000260025002040F66A17B94200D100BF61
:1022D0001846C1F3421401F01F06012707FA06F55C
:1022E000012C01D10C3004E0022C01D1103000E0AF
:1022F00014301AB107682F43076002E00768AF4344
:102300000760F0BD01468888C0F30800704770B5CB
:102310000246002400230025002040F66A16B14240
:1023200000D100BFC1F3421501F01F03012606FAD8
:1023300003F3012D02D19689334006E0022D02D12C
:10234000168A334001E0968A33400C12012606FAC1
:1023500004F41688344013B10CB1012000E00020D1
:1023600070BD00000038014029B1364A128802438E
:10237000344B1A8004E0334A12888243314B1A806E
:1023800070473048001D008840F010002D49091D9D
:10239000088070472B48001D00884FF6EF710840F9
:1023A0002849091D0880704700B50246FFF7E9FF7C
:1023B000100C244918310880091D0A80FFF7EAFF34
:1023C00000BD00B50246FFF7DCFFC2F303401D4924
:1023D00008310880091D0A80FFF7DCFF00BD00BF3F
:1023E0001848001D008800F020000028F8D0704731
:1023F0001448001D00884FF6F77108401149091D67
:10240000088000BF0F48001D008800F00800002869
:10241000F8D07047014600200A4A121D12880A406F
:10242000D0B2084A12880A4012B108B1012000E077
:10243000002070470349091D09888143014A121D84
:10244000118070470028004000220288AC4B98425F
:102450000ED0AC4B98420BD0B0F1804F08D0AA4BB5
:10246000984205D0A94B984202D0A94B984204D17A
:102470004FF68F731A404B881A43A64B984207D0E9
:10248000A54B984204D04FF6FF431A40CB881A431D
:1024900002808B8883850B880385994B98420BD0EB
:1024A000984B984208D09D4B984205D09C4B98423F
:1024B00002D09C4B984201D10B7A03860123838280
:1024C0007047F0B50C461546002200210026078C07
:1024D0004EF6FF7C07EA0C070784828B018C4FF6CF
:1024E000FF7707EA043640F6FF473A404FF6FF779A
:1024F00007EA05273A434FF6FF7707EA03373A43DF
:102500007F4FB8420ED07F4FB8420BD0B0F1804F12
:1025100008D07D4FB84205D07C4FB84202D07C4FE6
:10252000B84206D14DF6FF77394046F4805739431B
:1025300005E047F6FF57394044F48057394382831A
:102540000184F0BDF0B50C4615460022002100269E
:10255000078C4FF6FF6C07EA0C070784828B018C0F
:102560004FF6FF7707EA04264FF60C773A404FF60E
:10257000FF7707EA03172F433A43614FB8420ED063
:10258000604FB8420BD0B0F1804F08D05E4FB842D8
:1025900005D05E4FB84202D05D4FB84206D14FF62B
:1025A000FF57394046F48077394305E04FF2FF5733
:1025B000394044F48077394382830184F0BDF0B51B
:1025C0000C461546002200210026078C4FF6EF7CB2
:1025D00007EA0C070784028B018C4FF6FF7707EAA6
:1025E000041640F6FF473A404FF6FF7707EA0337F5
:1025F0003A434FF6FF7707EA05273A43404FB84280
:102600000ED0404FB8420BD0B0F1804F08D03E4FB3
:10261000B84205D03D4FB84202D03D4FB84206D136
:102620004FF6DF77394046F01007394305E04FF6A3
:102630005F77394044F01007394302830184F0BDCD
:10264000F0B50C46154600220021068C4FF6FE77A9
:102650003E400684028B018C4FF60C7632407E1C85
:1026600006EA03162E433243254EB0420ED0254EC5
:10267000B0420BD0B0F1804F08D0234EB04205D00D
:10268000224EB04202D0224EB04206D14FF6FD7625
:10269000314044F00106314305E04FF6F576314014
:1026A00044F00106314302830184F0BD21B1028868
:1026B00042F00102028004E002884FF6FE731A40E5
:1026C000028070471AB183890B43838102E08389BA
:1026D0008B438381704730B50246002000230024DD
:1026E000158A05EA0103958905EA010413B10CB1C5
:1026F000012000E0002030BDCA4302827047000084
:10270000002C01400034014000040040000800405B
:10271000000C004000100040001400400040014048
:10272000004401400048014010B50022028802F434
:1027300041520B884C8823438C882343CC88234305
:102740000C8923434C8923438C892343CC8923431D
:102750001A430280838B4FF2FF74234083830B8ADA
:10276000038210BD21B1028842F04002028004E0E1
:1027700002884FF6BF731A4002807047818170470C
:102780000146888970470246002013890B400BB12F
:10279000012000E00020704710B5044672488442D2
:1027A00008D101214015FFF7F5FC00216015FFF766
:1027B000F1FC17E06D48844208D101210015FFF7B4
:1027C000E9FC00212015FFF7E5FC0BE06848844296
:1027D00008D10121C803FFF7DDFC00214FF40040C0
:1027E000FFF7D8FC10BD30B502460020002350682A
:1027F000604C20400D790C6844EA05242043506069
:1028000090685D4C2040D1E902542C434D7944EA54
:10281000450420439060D06A20F470000C7C641E54
:10282000E4B2234340EA0350D06230BD21B1826854
:1028300042F00102826003E0826822F001028260BD
:102840007047816841F008018160704701460020AF
:102850008A6802F008020AB1012000E000207047F7
:10286000816841F0040181607047014600208A6858
:1028700002F004020AB1012000E00020704721B1FB
:10288000826842F4A002826003E0826822F4A0021F
:1028900082607047F0B504460D4600200021092DE6
:1028A00011DDE068A5F10A0606EB4607072606FAE1
:1028B00007F18843A5F10A0606EB460603FA06F17E
:1028C0000843E0600CE0206905EB4507072606FA9F
:1028D00007F1884305EB450603FA06F1084320613A
:1028E000072A0FDA606B561E06EB86071F2606FACC
:1028F00007F18843561E06EB860605FA06F10843E3
:10290000606322E00D2A0FDA206BD61F06EB8607E4
:102910001F2606FA07F18843D61F06EB860605FA3E
:1029200006F10843206310E0E06AA2F10D0606EB11
:1029300086071F2606FA07F18843A2F10D0606EB6B
:10294000860605FA06F10843E062F0BD0146C86C50
:1029500080B270470246002013680B400BB1012083
:1029600000E00020704700000024014000280140E2
:10297000003C0140FFFEF0FFFDF7F1FF10B58CB009
:1029800004461E230BAA03A9204600F015FE009062
:10299000009810B101200CB010BD9DF82C0004442B
:1029A00000200B900EE05E489DF82C2050F822107D
:1029B00003A800F069FD00B908E09DF82C00401C58
:1029C000C0B20B909DF82C000828ECDB00BF9DF8EE
:1029D0002C00072879D2DFE800F00405395B8BA2D0
:1029E000A10000BF4FA00EF095FD4FA00EF092FD8C
:1029F0005DA00EF08FFD6CA00EF08CFD7AA00EF0A5
:102A000089FD89A00EF086FD97A00EF083FDA4A09D
:102A10000EF080FDA9A00EF07DFDAEA00EF07AFDB7
:102A2000B2A00EF077FDB7A00EF074FDBBA00EF0C3
:102A300071FDC1A00EF06EFDCCA00EF06BFDD8A014
:102A40000EF068FDE3A00EF065FDA5E235A00EF0E6
:102A500061FDF0A00EF05EFD00200B900EE0FD4841
:102A600000689DF82C2000EBC2004168FAA00EF02F
:102A700051FD9DF82C00401CC0B20B90F548007D24
:102A80009DF82C108842EADC26A00EF043FD83E27C
:102A900024A00EF03FFDF2A00EF03CFD00200B90B4
:102AA0001CE0EC4909689DF82C2001EBC20101AB48
:102AB00002AA486803A900F0A4FDE64800689DF852
:102AC0002C1050F8312003A900E063E2F4A00EF0CE
:102AD00021FD9DF82C00401CC0B20B90DD48007D0C
:102AE0009DF82C108842DCDC0EA00EF013FD53E2A2
:102AF0000CA00EF00FFD0BAA03A9204600F058FE13
:102B00009DF82C0040B9694603A800F0F0FC0B903A
:102B10009DF82C0008B9CDE1DEE1D0E10DE2E1E164
:102B20006C0000200D0A00002D2D2D2D2D2D2D2D9A
:102B30002D2D2D2D2D2D2D2D2D2D2D2D2D2D2D2DC5
:102B400055534D4152542056322E382D2D2D2D2DBA
:102B50002D2D2D2D2D2D2D2D2D2D2D2D2D2D2D2DA5
:102B60002D2D2D200D0A00002020202055534D41F1
:102B70005254CAC7D3C9414C49454E54454BBFAACC
:102B8000B7A2B5C4D2BBB8F6C1E9C7C9B5C4B4AE23
:102B9000BFDAB5F7CAD4BBA5BDBBD7E9BCFE2CCD07
:102BA000A8B9FD200D0A0000CBFC2CC4E3BFC9D29C
:102BB000D4CDA8B9FDB4AEBFDAD6FACAD6B5F7D32C
:102BC000C3B3CCD0F2C0EFC3E6B5C4C8CEBACEBA58
:102BD000AFCAFD2CB2A2D6B4D0D02ED2F2B4CB2C38
:102BE000C4E3BFC90D0A0000D2D4CBE6D2E2B8FCE0
:102BF000B8C4BAAFCAFDB5C4CAE4C8EBB2CECAFD08
:102C000028D6A7B3D6CAFDD7D62831302F3136BD46
:102C1000F8D6C629A1A2D7D6B7FBB4AEA1A2BAAF47
:102C2000CAFDC8EB0D0A0000BFDAB5D8D6B7B5C8E3
:102C3000D7F7CEAAB2CECAFD292CB5A5B8F6BAAF41
:102C4000CAFDD7EEB6E0D6A7B3D63130B8F6CAE49F
:102C5000C8EBB2CECAFD2CB2A2D6A7B3D6BAAFCAC1
:102C6000FDB7B5200D0A0000BBD8D6B5CFD4CABE7B
:102C70002ED0C2D4F6B2CECAFDCFD4CABEBDF8D6CD
:102C8000C6C9E8D6C3B9A6C4DC2CD0C2D4F6BDF8F8
:102C9000D6C6D7AABBBBB9A6C4DC2E0D0A0000005D
:102CA000BCBCCAF5D6A7B3D63A7777772E6F7065D6
:102CB0006E6564762E636F6D0D0A000055534D41AD
:102CC0005254D3D036B8F6CFB5CDB3C3FCC1EE3A2B
:102CD0000D0A00003F3A20202020BBF1C8A1B0EF30
:102CE000D6FAD0C5CFA20D0A0000000068656C704E
:102CF0003A20BBF1C8A1B0EFD6FAD0C5CFA20D0AD9
:102D0000000000006C6973743A20BFC9D3C3B5C416
:102D1000BAAFCAFDC1D0B1ED0D0A0A0069643A200C
:102D20002020BFC9D3C3BAAFCAFDB5C44944C1D07E
:102D3000B1ED0D0A0A0000006865783A2020B2CE95
:102D4000CAFD3136BDF8D6C6CFD4CABE2CBAF3B848
:102D5000FABFD5B8F12BCAFDD7D6BCB4D6B4D0D003
:102D6000BDF8D6C6D7AABBBB0D0A0A006465633A94
:102D70002020B2CECAFD3130BDF8D6C6CFD4CABEEF
:102D80002CBAF3B8FABFD5B8F12BCAFDD7D6BCB46C
:102D9000D6B4D0D0BDF8D6C6D7AABBBB0D0A0A00A0
:102DA000C7EBB0B4D5D5B3CCD0F2B1E0D0B4B8F164
:102DB000CABDCAE4C8EBBAAFCAFDC3FBBCB0B2CE51
:102DC000CAFDB2A2D2D4BBD8B3B5BCFCBDE1CAF82F
:102DD0002E0D0A002D2D2D2D2D2D2D2D2D2D2D2D92
:102DE0002D2D2D2D2D2D2D2D2D2D2D2D2D2D414CE0
:102DF00049454E54454B2D2D2D2D2D2D2D2D2D2D51
:102E00002D2D2D2D2D2D2D2D2D2D2D2D2D2D2D20FF
:102E10000D0A00002D2D2D2D2D2D2D2D2D2D2D2D7F
:102E20002D2D2D2D2D2D2D2D2D2D2D2D2DBAAFCA26
:102E3000FDC7E5B5A52D2D2D2D2D2D2D2D2D2D2DA0
:102E40002D2D2D2D2D2D2D2D2D2D2D2D2D2D2D2DB2
:102E5000200D0A00FC00002025730D0A0000000070
:102E60002D2D2D2D2D2D2D2D2D2D2D2D2D2D2D2D92
:102E70002D2D2D2D2D2D2D2D2DBAAFCAFD204944E0
:102E8000202D2D2D2D2D2D2D2D2D2D2D2D2D2D2D7F
:102E90002D2D2D2D2D2D2D2D2D2D2D2D200D0A00DF
:102EA00025732069642069733A0D0A30582530383B
:102EB000580D0A00FBA000990EF02CFB0EE09DF8C7
:102EC0002C00042801D0022065E5F9A00EF022FBB9
:102ED0000120FC49C87501E002205CE5F3A00EF07A
:102EE00019FB59E0F1A00EF015FB0BAA03A920462F
:102EF00000F05EFC9DF82C00C8B9694603A800F0FC
:102F0000F6FA0B909DF82C0020B9EFA000990EF076
:102F100001FB0EE09DF82C00042801D002203AE5C8
:102F2000ECA00EF0F7FA0020E649C87501E0022097
:102F300031E5DEA00EF0EEFA2EE0DCA00EF0EAFAAB
:102F40000BAA03A9204600F033FC9DF82C00D8B949
:102F5000694603A800F0CBFA0B909DF82C0088B9C5
:102F6000D848C07D012806D1009801460268DEA03D
:102F70000EF0D0FA0AE0009801460268DEA00EF0DA
:102F8000C9FA03E0022006E5022004E5C7A00EF01E
:102F9000C1FA01E00120FEE400BF0020FBE410B50F
:102FA00001218807FFF797FB10B1C64908698047E0
:102FB00001218807FFF7A0FB10BD7FB504460D4631
:102FC00001210846FFF7D9F841F28830ADF8080032
:102FD00041F61F40ADF804000020ADF80A00ADF83E
:102FE000060001A94FF08040FFF72EFA012241218F
:102FF0008807FFF767FB1C208DF8000003208DF881
:1030000001008DF8020001208DF803006846FEF7EC
:1030100062FE01218807FFF749FB7FBD10B504461A
:1030200004EBC40000EB04100122C2EB800081B26B
:103030004FF47A70FFF7C1FF0120A249C87510BD97
:1030400030B595B0054613AB12AA09A9284600F081
:10305000D8FA044614B1204615B030BD00201490B3
:1030600026E0984909689DF8502001EBC20113AB96
:1030700011AA486801A900F0C4FA04460CB1204620
:10308000EAE709A901A800F0FFF960B99DF844003A
:103090009DF84810884201DD0220DDE79DF85000D0
:1030A000884988750AE09DF85000401CC0B2149011
:1030B0008448007D9DF850108842D2DC00BF8148D2
:1030C000007D9DF85010884201D10420C4E714A966
:1030D000284600F0D8FB04460CB12046BCE79DF81A
:1030E0005000784948750020B6E7F0B59BB07548A8
:1030F000847D007DA04201DC1BB0F0BD71490968F0
:1031000001EBC40107AB08AA486809A900F079FAE5
:1031100009A97CA00EF0FEF9002644E06948018B65
:103120000120B0400140D9B1222178A00EF0F2F97F
:10313000304600F09BFB634924314718394674A0A0
:103140000EF0E8F9222171A00EF0E4F9304600F00B
:103150008DFB5C492431084411A941F8260018E090
:10316000304600F083FB57492431085811A941F833
:1031700026005448C07D30B911A850F8261065A02B
:103180000EF0C8F905E011A850F8261062A00EF064
:10319000C1F99DF82000401EB04202D060A00EF0A0
:1031A000B9F9701CC6B29DF820008642B6DB5DA05E
:1031B0000EF0B0F94348407D0B280DD2DFE800F057
:1031C000060D151E27323F4E5FB4C9003D49096800
:1031D00051F8340080470546D2E03A4A126852F866
:1031E0003410119888470546CAE0364B1B6853F8DF
:1031F0003420DDE9110190470546C1E0314F3F68B9
:1032000057F8343011A807C898470546B8E0DFF8EA
:10321000B4C0DCF800C05CF8347011A80FC8B8471F
:103220000546ADE01598DFF89CC00090DCF800C0C2
:103230005CF8347011A80FC8B8470546A0E0DDE976
:103240001501DFF880C0CDE90001DCF800C05CF8B2
:10325000347011A80FC8B847054691E0DDE9151292
:103260001798DFF860C0CDE900120290DCF800C0CA
:103270005CF8347011A80FC8B847054680E0DDE956
:103280001523DDE91710DFF83CC0CDE90023CDE9B7
:103290000210DCF800C05CF8347011A80FC8B84701
:1032A00005466DE04845583A305825580D0A00004B
:1032B0003136BDF8D6C6B2CECAFDCFD4CABE210DB6
:1032C0000A000000FC0000204445433A256C750DBF
:1032D0000A0000003130BDF8D6C6B2CECAFDCFD448
:1032E000CABE210D0A0000002A2830582558293D61
:1032F000305825580D0A00002A282564293D2564E8
:103300000D0A00000D0A2573280000002563000047
:1033100025730000256C750030582558000000000A
:103320002C00000029000000DDE91613DDE9180279
:10333000CDE90113CDE903021598DFF8F4C0009040
:10334000DCF800C05CF8347011A80FC8B847054617
:1033500016E0DDE91723DDE91910CDE90223CDE9F7
:103360000410DDE91501DFF8C8C0CDE90001DCF883
:1033700000C05CF8347011A80FC8B847054600BFFC
:1033800000BF9DF81C0001280CD12948C07D20B940
:10339000294628A00EF0BEF807E0294627A00EF027
:1033A000B9F802E024A00EF0B5F800BFA4E670B5AD
:1033B0002548008800F40040002833D022480578D2
:1033C0000020224948551A48816820488847044609
:1033D0001CB91749C868804721E01C48FFF7CEFA9E
:1033E0000546012D00D02C46CCB1012C06D0022C74
:1033F00008D0032C0AD0042C10D10BE014A00EF03E
:1034000089F80BE015A00EF085F807E016A00EF085
:1034100081F803E017A00EF07DF800BF00BF002088
:103420000949088070BD014608687047016070470F
:10343000FC0000203D256C753B0D0A003D305825F1
:10344000583B0D0A0000000054000020F605002043
:10345000BAAFCAFDB4EDCEF3210D0A00B2CECAFD5B
:10346000B4EDCEF3210D0A00B2CECAFDCCABB6E06E
:10347000210D0A00CEB4D5D2B5BDC6A5C5E4B5C4EC
:10348000BAAFCAFD210D0A0002460AE010780B7897
:10349000984201D001207047107800B902E0521C18
:1034A000491CF3E700BF0020F5E706E002780A7048
:1034B000027802B902E0401C491CF7E700BF7047E0
:1034C0000146002005E00A7802B903E0421CD0B2B0
:1034D000491CF8E700BF704710B50246012000E024
:1034E00050430B1EA1F10104E1B2F9D110BD2DE949
:1034F000F04307460E4600254FF00A083C460020E0
:1035000030601FE02078392802DC207830280ADA81
:103510002078462802DC2078412804DA20785828D0
:1035200009D1012D07D12078412801DB4FF0100887
:10353000681CC5B205E0207800B904E00120BDE8B0
:10354000F083641CDEE700BF3C46B8F1100F0FD1DA
:10355000032D01DA0220F2E72078302806D16078C6
:10356000582803D1A41CA81EC5B204E00320E6E736
:103570000DB90420E3E71BE00DB1681EC5B2207849
:10358000392806DC2078302803DB2078A0F13009C8
:1035900002E02078A0F1370929464046FFF79CFF5A
:1035A000316809FB00103060641C207800B900E02D
:1035B000E2E700BF0020C2E710B50446002010700B
:1035C0000BE020780870641C491C1078401C1070B7
:1035D0001078984201DB012010BD2078202802D00D
:1035E00020780028EDD10020087000BFF4E70146E4
:1035F00000E0491C0878202801D10029F9D1087879
:1036000070472DE9FF4F85B080468946002600208F
:1036100004900390012002904FF0000B00254446D7
:103620001DE02078202816D005F07F00052812DA4A
:103630000DB945F0800505F07F00042803D12078FE
:103640002A2800D00EE0207805F07F010DF8010057
:10365000681CC5B202E0852D00D103E0641C20780F
:103660000028DED100BF8DB1002005F07F010DF8EC
:103670000100C6A16846FFF707FF18B900210898A6
:10368000017002E001210898017000254FF0000A46
:1036900044460FE0641C0AF1010000F0FF0A2078A4
:1036A000202807D12046FFF7A2FF0746282F01D088
:1036B000CDF810A02078282802D020780028E9D161
:1036C0004446049810B10498401C04444FF0000A8A
:1036D000002754E0207810B94FF0010A50E020781C
:1036E000282803D117B9701CC6B213E02078292806
:1036F00008D13FB916B1701EC6B201E04FF0010A01
:1037000046B93DE02078222804D10FB9012000E01D
:103710000020074646B9207820282FD0207889F845
:10372000000009F1010929E020782C2804D10120AA
:103730000290681CC5B214E02078202811D02078AF
:1037400028280ED04DB9BBF1050F06DA20780DF808
:103750000B000BF1010000F0FF0B0298401CC0B2FF
:103760000290012E0AD10298022807D10298401C2B
:10377000C0B202900398401CC0B20390641CA9E739
:1037800000BF0398012809D100200DF80B007FA18C
:103790006846FFF779FE08B900200390079903985F
:1037A0000870002089F80000504609B0BDE8F08F8D
:1037B000F0B50346154600200022002600244FE005
:1037C0001F782C2F01D104B901221F78292F01D095
:1037D0001F780FB904B944E0002E34D11F78302F80
:1037E00002DB1F78392F11DD1F78612F02DB1F7874
:1037F000662F0BDD1F78412F02DB1F78462F05DD7A
:103800001F78582F02D01F78782F0CD102B128E0F2
:103810001F78612F03DB1F78203F0F7001E01F78B6
:103820000F70491C19E01F78222F04D102B118E053
:103830000126012411E01F78202F0ED01F782C2F95
:103840000BD0FF260DE01F78222F00D1002402B1FB
:1038500007E014B11F780F70491C471CF8B25B1CBD
:10386000AEE700BF00270F702E70F0BD02460020AB
:10387000002105E0474B5B5C0344D8B24B1CD9B236
:103880009142F7DB70472DE9F043B5B005460F468E
:103890000024002604E000213E488155701CC6B279
:1038A0000A2EF8DB06E06D1C287818B9012035B027
:1038B000BDE8F08328782828F5D16D1C61E034AA92
:1038C00069462846FFF774FF064635449DF8D00048
:1038D00020B1012827D0FF284CD149E09DF80000F5
:1038E00000B333A96846FFF702FE06460EB1022078
:1038F000DDE72046FFF7BAFF26490A31339A0A501E
:10390000A1F12400008B0121A140884321491A39EB
:10391000088304211F480155601CC4B20A2C01DD34
:103920000320C4E726E06846FFF7CAFD401C00F00C
:10393000FF082046FFF79AFF16490A3100EB0109FC
:1039400049466846FFF7B1FD12481A38018B01203D
:10395000A040014388B20F491A3908830D4800F886
:103960000480601CC4B20A2C01DD03209FE701E043
:1039700002209CE700BF2878292801D0287800B9C8
:1039800000E09CE700BF3C70002090E7766F696420
:10399000000000001601002001460806000C40EA65
:1039A0001120704700B502461046FFF7F5FF00BD35
:1039B0000146080601F47F4240EA022001F47F023A
:1039C00040EA122040EA1160704700B503461846ED
:1039D000FFF7EEFF00BD10B500F04EFE00F04AF814
:1039E00000F010FA00F0C8FA04F062F800F046FEA9
:1039F00004F03BF810BD000030B500BF00BF00BFB1
:103A000000BF00BF00BF00BF00BF0388F84C2468A0
:103A10001919884215D00B799BB9F64B1B6899424E
:103A20000FD0F54B1B688B4201D1F34B18600B880C
:103A30000380EF4B1B88C31A0C88ED4D2D682C4476
:103A400063804388EA4C24681A19824211D01379A2
:103A50007BB9E94B1B68834201D1E74B1A600388AD
:103A60001380E34B1B88D31A0488E14D2D682C4446
:103A7000638030BD00BF00BFE04921F00301DC4A94
:103A80001160114608684FF47A510180002141808D
:103A900001711146096801F57A51D64A1160012178
:103AA000126811714FF47A51D24A12681180D14ACA
:103AB00012685180CE490968CF4A11604FF47A519B
:103AC000CF4AA2F8A810704770B5054605B970BD79
:103AD00000BF00BF00BF00BFC5480068854203D3D8
:103AE000C4480068854208D3C548B0F8B000401CFF
:103AF00081B2C348A0F8B010E9E7A5F1080400BFFF
:103B000000BF00202071BC480068844201D2BA483E
:103B100004602088B6490988611A411AB848B0F88B
:103B2000AA00401A81B2B648A0F8AA102046FFF7B2
:103B300063FF00BFCBE72DE9F04107460A46D01CE2
:103B400020F0030082B20C2A00DA0C22B2F57A5F70
:103B500002DD0020BDE8F08100BF00BFA44800687E
:103B6000874203D3A348006887420AD3A448B0F829
:103B7000B000401C1FFA80FCA148A0F8B0C0384635
:103B8000E8E7A7F108049A480088201A86B220883E
:103B9000801B083885B200BF00BFAA4201DD0020AB
:103BA000D8E7AA4201D13846D4E72088DFF840C2DE
:103BB000DCF800C000EB0C010879E0BB088806F1D6
:103BC000080C94441FFA8CF3DFF82CC2DCF800C018
:103BD0008C4508D1DFF818C2DCF800C09C44DFF83F
:103BE0001882C8F800C0DFF808C2DCF800C00CEB8F
:103BF00003014FF0000C81F804C008804E80238040
:103C0000B1F800C0BCF57A5F08D0B1F800C0DFF8A9
:103C1000E081D8F80080C444ACF80230DFF8E0C19D
:103C2000BCF8AAC0A5EB0208ACEB080C1FFA8CF894
:103C3000DFF8CCC100E002E0ACF8AA802DE002F190
:103C40001400A84229D806F10800104483B268483D
:103C50000068C11868480068814201D26648016066
:103C600000200871208808804E8023800888B0F5E5
:103C70007A5F06D00888DFF878C1DCF800C06044BD
:103C800043805F48B0F8AA00A5EB020CA0EB0C0043
:103C90001FFA80FC5A48A0F8AAC038465AE7F0B587
:103CA00002460AB90020F0BDD01C20F0030082B209
:103CB0000C2A00DA0C22B2F57A5F01DD0020F2E76F
:103CC0004D4800884A4E3688801B83B281E04848C0
:103CD0000068C1180879002878D10E8803F108001F
:103CE000301A904272D30E8803F10800361A02F19E
:103CF000140086422ED303F10800104485B23C48DC
:103D000000684419002020710888208063800D809D
:103D1000012008712088B0F57A5F04D02088344EE5
:103D200036683044458000BF3548B0F8AA6002F1DB
:103D30000800304486B23248A0F8AA60B0F8AC60FF
:103D4000B0F8AA00864204DA2D48B0F8AA60A0F8BC
:103D5000AC601BE00120087100BF0888244E368843
:103D60008E1B861B2648B0F8AA00304486B2244831
:103D7000A0F8AA60B0F8AC60B0F8AA00864204DAF5
:103D80001F48B0F8AA60A0F8AC6000BF1A480068ED
:103D9000814211D1184E306803E00688144F3F6805
:103DA000F01906791EB1134E3668B042F5D1124EA5
:103DB000306000BF00BF00BF00BF00BF00BF00BF3A
:103DC00000BF00BF01F108006DE7FFE70848006889
:103DD000C35AC2F57A5098423FF779AF0848B0F815
:103DE000AE00401C86B20648A0F8AE6000205AE73C
:103DF000E8010020EC010020F0010020C1060020B5
:103E0000C0AF002030B500201CE0002400EB80058E
:103E1000544B03EB45035C8000EB8005514B03EBF7
:103E200045039C8000EB80054E4B03EB4503DC8093
:103E30004D4B33F8104000EB80054A4B23F81540FA
:103E4000431C98B20A28E0DB484B23F00301002012
:103E500019E00023464C44F8203000220CE0444B8B
:103E600053F820300B60424B43F82010414B33F89D
:103E700010301944531C9AB23B4B33F81030934224
:103E8000EDDC431C98B20A28E3DB30BD10B50146D7
:103E900000BF0A2901DB002010BD00BF344850F8E4
:103EA000212082B3324B106843F8210000BF01EBA0
:103EB00081032C4800EB43004088401C83B201EB97
:103EC0008104284800EB4400438001EB810325482E
:103ED00000EB4300838801EB8104224800EB44009F
:103EE000408883420BDA01EB81031E4800EB43005C
:103EF000438801EB81041B4800EB4400838000BF32
:103F000000BF00BF0EE0FFE701EB8103154800EBA7
:103F10004300C088401C83B201EB8104114800EBD0
:103F20004400C3801046B7E730B501B930BD00BFCB
:103F300000BF0A4600EB80040A4B03EB44035B8896
:103F40005B1E9CB200EB8005064B03EB45035C80D7
:103F5000074B53F820301360054B43F8202000BF77
:103F6000E4E7000072B00020FA3501087F45002028
:103F700054450020E6350108704709B9002200E0E9
:103F80000A68C260704709B9002200E00A688260CE
:103F900070472DE9F04107460C4654B32068796814
:103FA000884201D1012000E0002010BB464806688D
:103FB0000BE030687968884206D1D6F80C8030462C
:103FC00000F0BEFF464600E0F668002EF1D13F4803
:103FD00005680CE055B1286840B1286879688842C6
:103FE00004D10CB9002000E020682860ED68002DA5
:103FF000F0D10CB9002000E020687860BDE8F081C5
:104000002DE9F04106460F4614461D463946304616
:10401000FFF7BFFF21463046FFF7B5FF2946304680
:10402000FFF7ABFFBDE8F0812DE9F04704460D46F0
:1040300016461F46DDE909A9DDF8208000BF00BF54
:1040400000206060A060E06084F82900C4F81C8053
:104050001F48007884F82C001D480078401C1C493B
:104060000870C4F810903B46324629462046FFF7B8
:10407000C7FF2046D04710B10020BDE8F0871548A3
:1040800000682060134804602046F6E71249086083
:10409000704710B5044694F8290000F0010090B96B
:1040A00014F8290F40F00100207014F8290900F0DD
:1040B000100040B194F8290000F0200018B1211D33
:1040C000204605F0D9F910BD14020020100200208E
:1040D000FC010020F4010020F80100202DE9F04748
:1040E000044624B900BF00BF0020BDE8F08700BF30
:1040F00000BF002631E000BF00BFE089401E1FFA6C
:1041000080F8A4F80E80B8F1000F24D12768257B31
:10411000607B00F0020038B1A14600BF00BF20461E
:10412000D9F81010884712E0032D04D12146092048
:10413000FFF7FAFE0BE0012D01D0022D04D121463C
:104140000820FFF7F1FE02E02046FFF7BDFC701CDF
:10415000C6B23C4600E0002400BF002CCBD1304664
:10416000C3E72DE9F05F83460F469046BBF1000F91
:1041700009D0BBF1010F08D0BBF1020F07D0BBF192
:10418000030F08D105E036260AE0222608E00E26B5
:1041900006E0002604E000BF00BF0020BDE8F09F5D
:1041A00000BFB8F1000F6BD0B8F1010F77D0B8F1B4
:1041B000020F75D0B8F1030F73D10920FFF766FE27
:1041C00004460CB90020E9E784F80C800020206048
:1041D00006F110002044C01C20F00300606000BF06
:1041E00000BF2781F01C20F0030040F2EC51081AB8
:1041F000B84201DD384605E0F01C20F0030040F233
:10420000EC51081A608100BF00BF00BF00BF012051
:10421000E081A2466089A7EB00092DE00920FFF7A5
:1042200035FE054625B92046FFF758FF0020B5E7C3
:1042300085F80C80002068732860CAF8005000BF21
:1042400000BFA5F808901FFA89F040F2EC518842AF
:1042500002DA1FFA89F001E040F2EC50688105F1C2
:104260001000686000BF00BF00BF00BF0120E881F0
:104270006889A9EB0009AA46B9F1000FCEDC35E048
:1042800006F1130121F00302F91C21F0030111448E
:1042900088B2FFF704FD044624B900207EE711E050
:1042A00011E01FE004F110003044C01C20F00300B6
:1042B0006060278167810020206084F80C8000BF47
:1042C00000BF13E000BF0820FFF7E0FD04460CB973
:1042D000002063E70020606027816781206084F808
:1042E0000C8003E000BF00BF002057E700BF0120A3
:1042F000E08100206073204650E7F0B505460C468B
:10430000DDE9056735B1012D06D0022D06D0032D5C
:1043100008D105E0362109E0222107E00E2105E061
:10432000002103E000BF00BF0020F0BD00BFC81C9B
:1043300020F003002044B84201DD0020F5E7002012
:1043400018602EB1C81C20F003003044586001E012
:1043500000205860022058731C815C811A73012070
:10436000D8811846E1E72DE9F04106460F4600BF27
:1043700000BF00BF00BF3089B84201DCBDE8F0815A
:104380003089A7EB00083D4634460AE06089281AC8
:1043900085B200BF00BF208940442081246800BF4F
:1043A00000BF6089A842F1DB207B60B96089A84228
:1043B00009D0A088001B284481B22046FFF7BBFB30
:1043C000044600BF00BF658160892081206810B16C
:1043D0002068FFF783FE0020206000BFCEE770B5A5
:1043E000024600BF00BF01B10AB9002070BD00291C
:1043F00008DA484284B200BF5089A04201DA0120A5
:10440000F4E700E08CB2137B55680BB1032B0AD1A3
:104410005068401A506002F110005668864215D26A
:1044200055600120E2E7022B01D0012B0AD10029BF
:1044300006DA5089A04203DB5068401A506005E05C
:104440000120D3E700BF00BF0120CFE75089084417
:1044500050811089084410810020C7E701460020E0
:1044600002E0421CD0B209680029FAD1704710B1AD
:10447000C189491CC181704710B5024600BF02B115
:1044800001B910BD00BF104604E003890C89234424
:10449000038100680368002BF7D100BF00BF00BF95
:1044A00000BF03890C8923440381016000BFE8E752
:1044B0002DE9F04105460C460026002700BF25B136
:1044C0001CB128892189884203DA6FF00D00BDE80C
:1044D000F08100BF00BF6889801B6189C91B8842C9
:1044E00004DB6089C01B1FFA80F803E06889801B29
:1044F0001FFA80F86268D1196A68901942460CF078
:1045000032FC06EB080086B207EB080087B200BF5A
:1045100000BF00BF00BF6089B84201DC00272468EB
:104520006889B04208D100262D6800BF1DB914B1BA
:104530006FF00D00CBE700BF54B16089218988423C
:1045400006D100BF206810B16FF00500BFE700BFC3
:1045500055B168892989884206D100BF286810B101
:104560006FF00500B3E700BF002CB4D10020AEE728
:104570002DE9F05F8046894616461D464FF0000B38
:1045800000BFB8F1000F02D10020BDE8F09F00BFCE
:1045900000BFB9F1000F01D10020F6E700BF4FF0D6
:1045A000000AB8F1000F02D0B9F1000F01D10020CC
:1045B000EBE7444620E035B16089A84203DC60891E
:1045C000281A85B217E06089401B87B2B74200DD28
:1045D00037466268511909EB0A003A460CF0C3FBF2
:1045E0000BEB07001FFA80FB0AEB07001FFA80FAAB
:1045F000F01B86B2002524680EB1002CDBD1584692
:10460000C3E700002DE9F04705468A460027D5F8A4
:10461000048098F809900026144804681FE0207C64
:1046200048451AD134B1206820B111492068096881
:10463000884212D1606980B10E4B2A462146D4E9E6
:1046400005C0E04748B10025012736B1E068F060B9
:1046500006480068E060054804602646E4680FB933
:10466000002CDCD13846BDE8F087000000020020B5
:10467000680200206402002070470000704710B5F7
:10468000044644B1606810B16068FFF727FD214619
:104690000420FFF749FC10BD70B5044605E025680D
:1046A0002046FFF7ECFF2C4600BF002CF7D170BD71
:1046B00010B50446207EF0B1207E0A281BD0207E53
:1046C000012818D0A06F20B1A06FFFF707FD0020D0
:1046D000A067606FFFF7E0FF00206067401EA086C4
:1046E000E06EFFF7D9FF206FFFF7D6FF0020E066EE
:1046F0002067A4F86A0010BD2DE9FE4F002002904B
:10470000FE480068401CFD490860FD480078401CD8
:10471000FB49087000BF0025FA48046858E100BF53
:1047200000BF00BF00BF00BF00BF94F82100F449E4
:104730000978884201D1E4684AE1F148007884F8B8
:1047400021000026B146207E022806D194F84600BA
:10475000062802D1701CC6B26BE094F846000C2803
:1047600002D1701CC6B264E094F8950000281BDDED
:1047700014F8940F401C207021786078943C401EFF
:10478000E14A105C814254DB002084F8940094F8E4
:104790009500072804D294F89500401C84F89500F1
:1047A000204603F075F844E0B4F93400002803DB38
:1047B000A08E401C00B2A086206FD0B3B4F93400A4
:1047C000B4F94410884234DB207E02280CD04034F7
:1047D0006088B4F9001000EBE100A179CB4A515C8C
:1047E000884000B2A080403C0020A086B4F84C0075
:1047F000B4F86010884202DAB4F84C0001E0B4F872
:10480000600082464FEA6A00A4F84E00B4F84E00F9
:10481000E18EB0EB410F06DAE08E4FF6FF7101EA50
:104820004000A4F84E00E08EA4F84C00204602F0B0
:104830007BFF207E06280BD1A07F00F0100038B14E
:10484000AE49606A0968081A282801D9701CC6B2E6
:10485000207A00F00800A8B3207E042802D0207E31
:1048600007282FD1AA49D4F8900008444FF4FA71D0
:10487000B0FBF1F0A14A616A1268511A884206D26F
:10488000701CC6B209F1010000F0FF091AE094F8AB
:10489000960042F29F425043D4F8901001EBC000C2
:1048A0004FF4FA71B0FBF1F0944A616A1268511A40
:1048B000884207D2204602F0B9FF94F89600401CC7
:1048C00084F89600606F78B18C49606A0968081AAC
:1048D000B4F9441001EB4101B0EB410F04D3606F18
:1048E000FFF7DAFE00206067207E032807D18349A6
:1048F000606A0968081A282801D9701CC6B2207E8F
:10490000092807D17D49606A0968081AF02801D989
:10491000701CC6B2A6B32046FFF7CAFE25B100BF81
:1049200000BFE068E86004E000BF00BF7549E068D0
:104930000860B9F1000F09D0A08B618BCDE90010A0
:10494000231D2246A16A206D02F099FED4F88C80C6
:10495000D4F810B02746E46839460220FFF7E4FA9D
:1049600000206C49087000BFB8F1000F03D06FF051
:1049700009015846C04700BF6648007808B1CAE63A
:1049800000E024E02546E468E87F401CE877E87F03
:1049900095F8201088421ADB0020E8775D490870FE
:1049A00000BFD5F8880030B12946D5F8882028699D
:1049B0009047029001E00020029000BF5548007827
:1049C00000B1A8E6029810B9284602F07AFD00BFAF
:1049D000002C7FF4A4AE00254F48046822E000BFFD
:1049E00000BF00264549606A0968081AF02801D905
:1049F000701CC6B2A6B12046FFF75AFE25B100BF13
:104A000000BFE068E86004E000BF00BF4249E06822
:104A100008602746E46839460220FFF785FA01E07E
:104A20002546E468002CDAD1BDE8FE8F70B5054656
:104A30000C4600BF2868A04203D12868C0682860DF
:104A400017E03649286808600EE034480068C068FE
:104A5000A04204D13149E0680968C86008E02F48E5
:104A60000068C0682D4908602C4800680028ECD117
:104A700000BF0020E06000BF2046FFF719FE207E47
:104A80000A280DD0207E01280AD0A07F00F0010066
:104A900030B1A07F40F00200A077204602F011FD67
:104AA000207E012805D000BF00BF00BF00BF00BFAF
:104AB00000BF0020207600BF00BF70BD7CB504465B
:104AC0000E46002E6ED0207E042802D0207E0728BD
:104AD00068D1A06F20B9A08D41F2D061884261D029
:104AE00000BF00BFA08B618BCDE90010231D2246C3
:104AF000A16A206D02F0C3FD204611E008020020EB
:104B00002202002014020020493601083C36010828
:104B1000B84C0A0020020020180200201C020020CD
:104B2000FFF7C6FD00BF00BFFD480068A04205D1E9
:104B3000FB480068C068FA49086018E0F848006857
:104B4000F84908600EE0F7480068C068A04204D148
:104B5000F449E0680968C86008E0F2480068C06885
:104B6000F0490860EF4800680028ECD100BF002041
:104B7000E06000BF0120EC49087000BF207E0428DF
:104B80000AD10A20207600BFE8480068E060E748C4
:104B9000046002F041FF03E021460220FFF7C4F960
:104BA00000207CBD207E082868D2DFE800F00434B5
:104BB0003F4F5767675F0025608B30B300BFDC480D
:104BC0000068A04205D1DA480068C068D84908608A
:104BD00018E0D7480068D34908600EE0D148006863
:104BE000C068A04204D1CF49E0680968C86008E005
:104BF000CC480068C068CB490860CA4800680028F3
:104C0000ECD100BF0020E06000BF21460220FFF78A
:104C10008BF9002435E000252146C648FFF706FF42
:104C200021460320FFF780F900242AE0002500BF79
:104C30002146BB48FFF7FAFE0120BB49087000BFC0
:104C400021460220FFF770F900241AE0204602F006
:104C500023F905460DB90520207612E0204602F022
:104C60001BF905460DB9052020760AE0204602F022
:104C700013F905460DB90920207602E0002500242D
:104C800000BF00BF1CB115B9204602F01AFC28462F
:104C900087E710B50446207E012803D0A07F40F0AE
:104CA0001000A07701212046FFF708FF10BD10B5C6
:104CB00001468B8D886AC218C88E40F668340B6B2B
:104CC000A04201DD204600E0C88E1844101A04D42A
:104CD000888DC885086B101A10BD0B6B886AC01AC6
:104CE000002802DD0020C88506E08C6A0B6B181BCB
:104CF00000BF00BFC88500BF0020EDE770B50446C7
:104D00000E4600BF00BF00BF00BFA08D3044A0858D
:104D1000A08D41F2D061884201DD0846A085204681
:104D2000FFF7C5FF054640F2B450854208DB00BFDF
:104D3000A07F40F00200A07700BF204602F0C1FB38
:104D400070BD2DE9F04107460D4614461E463CB1A4
:104D500021892846FFF7D2FF2046FFF7BFF905E07B
:104D600026B92846FFF795FFBDE8F0810020FBE754
:104D70002DE9F0410446A06F477BA66F0020A06795
:104D800000BFD4F8800040B1002332462146D4F859
:104D900080C02069E047054606E0002332462146F0
:104DA0001846FFF7CEFF054600BF05BB07F0200001
:104DB00020B3A08D41F2D061884202D0A08D401C6A
:104DC000A08500BFD4F8800040B100231A462146D8
:104DD000D4F880C02069E047054600E0002500BF08
:104DE00005F10A0050B96FF00900BDE8F08105F146
:104DF0000A0010B96FF00900F7E7A6670020F4E792
:104E000070B54D480078401C4B49087000BF4448BD
:104E1000046829E094F8210047490978884223D0A2
:104E20004548007884F82100A07F00F0010060B1BF
:104E300000BFA07F40F00200A07700BF204602F034
:104E400040FBA07F20F00300A077E568A06F48B189
:104E50000020354908702046FFF78AFF3248007865
:104E600000B1D4E72C4600BF002CD3D170BD10B5E3
:104E7000FFF7C6FF31480078401CC0B22F490870C8
:104E800000F0010008B1FFF737FC10BD2DE9FC4729
:104E900004460E4600BF00BF207E0A2808D12146E6
:104EA0002248FFF7C3FD21460220FFF73DF834E01A
:104EB000276DD4F82880D4F88C50D4F8109000BF17
:104EC00021461748FFF7B2FD01201749087000BFBF
:104ED000206F10B1206FFFF7DFFBE06E10B1E06EC6
:104EE000FFF7DAFB606F10B1606FFFF7D5FB4EB1D3
:104EF000A08B618B231D2246CDE900104146384628
:104F000002F0BDFB21460220FFF70EF800BF1DB1E5
:104F10006FF009014846A84700BFBDE8FC870000C4
:104F2000140200201C020020200200201802002091
:104F30000C0200201002002022020020210200208A
:104F400010B5044601212046FFF7A0FF10BD30B583
:104F5000002300BFF84804880088401CF64D2880D4
:104F60004FF6FF70844203D14FF440402C4620801E
:104F7000002117E0F14850F8210002680EE0508B44
:104F8000ED4C2488A04208D1581C80B20346B0F5ED
:104F9000804F01DB002030BDDCE7D268002AEED173
:104FA000481CC1B20429E5DBE3480088F3E72DE99A
:104FB000F04705460C4617464FF0040900BF287E0F
:104FC00018B16FF00500BDE8F08700BF37B9FFF7F3
:104FD000BEFF074617B96FF00100F4E74FF0000875
:104FE00019E0D64850F82800066810E0708BB842E7
:104FF0000CD146B1306830B12CB1206818B130689E
:105000002168884202D16FF00700DCE7F668002EC5
:10501000ECD108F10108C845E3DB1CB1206808B1F8
:10502000206828606F8300BFC5480068E860C448F6
:10503000056002F0F1FC00BF0020C4E703466FF0FA
:105040000900704770B504460E4600BF207E08B1C7
:10505000002070BD00BF207E012801D12046F8E766
:105060000320FEF713FF05460DB90020F1E7206984
:105070002861608B688301202876607E6876207ABC
:105080002872287A40F002002872A07AA872607A0A
:10509000687220682860608B30B300BFA848006841
:1050A000A04205D1A6480068C068A549086018E07C
:1050B000A3480068A34908600EE0A2480068C068E1
:1050C000A04204D19F49E0680968C86008E09D4893
:1050D0000068C0689B4908609A4800680028ECD1C5
:1050E00000BF0020E06000BF21460220FEF71CFF49
:1050F0009548686100BF95480068E860934805607E
:1051000002F08AFC00BF2846A3E72DE9F0410546DE
:105110000E46304603F09CF8044654B1208C40B152
:10512000208C283887B2BD4201DA284600E0384694
:1051300005462846BDE8F08185480068854909682C
:105140000844834908600846006870472DE9F05F0D
:1051500004460E469046994600BF207E18B16FF077
:105160000800BDE8F09F00BF16B13068606002E043
:105170006FF00500F5E7A4F81C800CB1206868B951
:10518000201D03F065F88346BBF1000F02D16FF0DC
:105190000300E6E7DBF80400206000BFB4F81AA0C3
:1051A000608B38B9FFF7D3FE6083608B10B96FF066
:1051B0000100D6E7FFF7C0FF0546002044F8280F9E
:1051C000A562681E2062606341F2D060A080E0802A
:1051D0002068A06041F2D06020874FF40670E08123
:1051E000E0893146FFF791FFE0810120A084E0894A
:1051F00000EB80004FF6FF7101EA4000E084C4F844
:105200005C90283C0221204601F09EFD0746002FBD
:105210003CD102202076BAF1000F26D000BF4848CA
:105220000068A04205D146480068C068444908604B
:1052300018E043480068434908600EE041480068B0
:10524000C068A04204D13F49E0680968C86008E02E
:105250003C480068C0683B4908603A48006800283C
:10526000ECD100BF0020E06000BF00BF00BF3A48A3
:105270000068E0603848046002F0CEFB00BF012007
:105280003649087000BF204602F01BF9384668E72F
:105290004176704770B505460420FEF7F7FD0446D9
:1052A0000CB9002070BD95E80F0084E80F0060681D
:1052B000FFF7DDF82046F5E72DE9F04106464FF00F
:1052C0007F08002700252448046813E0607EB04270
:1052D0000FDC607E40450CDC1E49606A0968081AD4
:1052E000B84206D31B49606A09680F1A254694F82C
:1052F0001980E468002CE9D115B12846FFF720FE9B
:10530000BDE8F08170B500260025154804680BE063
:105310001049606A0968081AB04204D30D49606AEE
:1053200009680E1A2546E468002CF1D115B128460B
:10533000FFF706FE70BD0000040200205036010891
:105340000C0200201C0200203D500008100200202A
:105350002402002008020020140200202002002065
:105360001802002070B506460220FEF78FFD0446A5
:10537000FCB9FFF7C7FF0220FEF788FD04467CB9A1
:105380003046FFF799FF0220FEF780FD04463CB14E
:105390003748B0F8CC00401E81B23548A0F8CC1098
:1053A0003CB13348B0F8CC00401E81B23048A0F880
:1053B000CC10002C3BD0982120460BF0EDFC14348F
:1053C000667142F6A050A4F852000020A4F85400E0
:1053D00041F2D06020836083002004F80B0CFF2092
:1053E00004F80A0C4FF40670608406202086002022
:1053F000A0850620E085C01F208401202087FFF7BC
:105400009BFE05466564E5636563A564194800680D
:1054100020611948007860730020E072AFF2DD600F
:10542000E0661648E067002084F88200143C2046BD
:1054300070BD10B54020FFF795FF10BD01617047AA
:1054400000BF00BFC0F88010704700BF00BFC16739
:10545000704700BF00BFC0F88C10704741617047B3
:1054600000BF00BFC0F8881080F8202070470000FF
:10547000C0AF0020080200202202002000DD6D00E5
:1054800070B505460C46E9688889FEF78BFA00F08E
:10549000010020B12046FFF7FFF8002433E013E0BD
:1054A000E1688889FEF77EFA00F0010038B101203A
:1054B000FEF772FAE96889890843E9688881264617
:1054C00024683046FFF7DBF84CB1E068406821897A
:1054D00008442989FE4A12681144081AE0D594B19B
:1054E0002889FB4909680844E1684968401A00288E
:1054F00009DDE0688088F6490988401A28812989F1
:105500006868FEF730FF2C6070BD2DE9FE4F044641
:105510000020009000BF00BFEE48007800F01000AF
:1055200000287DD0B4F86000A16D08440290E849DD
:10553000606D0968401A15D4E549606D09688842B4
:1055400004D1E549A06D0968401A0BD4E249A06D69
:105550000968884231D1E1480068C089B4F8601018
:1055600088422ADDDD480068C089A4F86000B4F8EC
:105570006200DA490968C989884204DAD7480068B4
:10558000C089A4F86200D24800686065D24800680B
:10559000A065B4F8600048B994F8950068B9002097
:1055A00084F89400012084F8950006E094F89500B2
:1055B000002802DD002084F89500C749A06C096826
:1055C000081A002848DC0020A4F86400C4480088B9
:1055D00038BBB4F86010A06D01440298814235D107
:1055E000B4F93400002831DBBB49A06C096888425B
:1055F0002CD10120009094F84700401CC0B294F8D0
:105600004710884204DD94F84700401C84F84700A6
:1056100094F84700032812DDB4F84C00E18E01E055
:105620004BE10BE0084480B2B4F84C1088420DDD29
:10563000B4F84C00E18E0844A4F84C0006E094F85D
:105640004700032802D1204602F0B8F8009800284D
:1056500001D184F84700ADE0A06C401C9E49096868
:10566000081A7DD49C49206D0968081A002877DC47
:10567000A07F00F0040038B1A07F20F00400A077E4
:10568000B4F84E00A4F84C0000202834A077608BBA
:10569000B4F9181000EBE10000B2A083208C8E4911
:1056A0000988081AA087E08FA18F0844E0870020AE
:1056B000E07789480068206214F8100C283C042820
:1056C00024DBB4F84C00B4F84E1088420FDAB4F87A
:1056D0004C00E18E084480B2B4F84C10884215DDCD
:1056E000B4F84C00E18E0844A4F84C000EE034F805
:1056F000361F4943E28A91FBF2F1114488B2E18AF4
:10570000363C814201DAA4F84C0000BF26E0256F48
:10571000206F0068206700BF6868FEF79FFE00BF2B
:10572000B4F8640058B1E9688889FEF73BF900F0E5
:10573000010020B1B4F86400401EA4F86400686859
:10574000FEF78CFE34F8681F081A20802846FEF702
:1057500096FF34F8680908B100BF00BF206F00E071
:1057600025E0C8B1216FC9684868FEF72EF9834665
:10577000216FC9688889FEF715F900F0030008B1A8
:10578000012000E00020216F098908445844524953
:105790000968401A0028BADD206F18B94FF0FF30B1
:1057A000A08601E00020A0860020E07702E0002033
:1057B000A4F864002BE0E56EE06E0068E066E06E41
:1057C00010B90020A4F86A0000BF6868FEF746FE22
:1057D00000BFB4F8640058B1E9688889FEF7E2F8C0
:1057E00000F0010020B1B4F86400401EA4F8640089
:1057F0006868FEF733FE34F8681F081A20802846D0
:10580000FEF73DFF34F8680908B100BF00BFE06E45
:10581000F0B1E16EC9684868FEF7D7F88346E16EDB
:10582000C9688889FEF7BEF800F0030008B10120BE
:1058300000E00020E16E09890844584426490968BF
:10584000081A05D42449206D0968081A0028B2DD19
:10585000A06B90B32049E06B0968401A2DD534F84D
:10586000380F20490988081A0FFA80FAB4F908009D
:10587000AAEBE0000FFA80FA2089504400B22081A0
:10588000383CBAF1000F03DACAF100000FFA80FACF
:105890003834B4F90A00AAEBA0000FFA80FA608944
:1058A000504400B260816089B4F9081000EBE10057
:1058B00000B2A081002044F8380909480088002877
:1058C0007EDD207E07287BDA0148A16A00680BE0B4
:1058D000300200203802002034020020280200207C
:1058E0003A02002008020020401C081A56D4F8484A
:1058F000A16A0068F74A12881044401E081A00285E
:105900004CDCF349A06A0968A0EB0109F248D0F821
:10591000048000BF00BF00BF00BF40684089484509
:1059200022DA00BF00BFEC4840680089A0EB090004
:1059300080B201900BE0B8F80A00A9EB00090198C9
:10594000A8F808000020A8F80A00D8F80080B8F8E5
:105950000A004845EFDBC9F1000001B24046FEF7FE
:105960003EFD58B100BF09E0DB494868C9F10001BC
:1059700009B2FEF734FD08B100BF00BFD648008968
:10598000218DD34A1288891A401AD3490881D049F7
:10599000A06A0860D049C96848600AE0CC49A06A9A
:1059A0000968081A05D500BFA07F40F00200A07763
:1059B00000BFC749A06A0968081A71D4A18D00E028
:1059C00078E2A06A0844401EC1490968081A002804
:1059D00066DCBF49A06A096888426FD1BE49C968C0
:1059E0008889FDF7DFFF00F0030008B1012000E027
:1059F0000020B94909890844B6490880A08D098862
:105A0000884241DAB449C9688889FDF7CBFF00F0C4
:105A1000010098B1B049C9688889FDF7C3FF00F05B
:105A20003E0B5846FDF7B8FFAB49C96889894CF26F
:105A3000FF0211400843A849C9688881A08DA64982
:105A40000881C9688889FDF7ADFF00F0020020B128
:105A5000A1480089401EA04908819F4A11895068C9
:105A6000FEF781FC9C49C9688889FDF79BFF00F01F
:105A7000030008B1012000E000209749098908448B
:105A80009449088000BF00BF606F002815D092497C
:105A9000C9688889FDF786FF00F0010078B109E048
:105AA00004E2D4F874B0606F006860675846FEF78F
:105AB000E6FD00BF606F0028F3D172E017E1656F6B
:105AC0002DE0E9688889FDF76DFF00F0010008B35B
:105AD0008149C9688889FDF765FF00F00200C8B9EF
